:100000000C9446000C9465000C9465000C946500FB
:100010000C9465000C9465000C9465000C946500CC
:100020000C9465000C9465000C9465000C946500BC
:100030000C9465000C942D010C9465000C946500E3
:100040000C9465000C9465000C9465000C9465009C
:100050000C9465000C9465000C9465000C9465008C
:100060000C9465000C9465000C9465000C9465007C
:100070000C9465000C9465000C9465000C9465006C
:100080000C9465000C9465000C94650011241FBE4F
:10009000CFEFD0E4DEBFCDBF11E0A0E0B1E0E6E3FA
:1000A000F5E000E00BBF02C007900D92A231B1074E
:1000B000D9F721E0A2E1B1E001C01D92AB31B20756
:1000C000E1F70E9474020C9499020C94000040E045
:1000D00050E00CC000002F5F3F4F02C020E030E036
:1000E000273063E03607B4F34F5F5F4F4817590777
:1000F000ACF308959BB19F7B9BB988B98BB18068A5
:100100008BB900008BB18F778BB982E090E00E94B1
:100110006700089581E00E947A000895813120F4FB
:1001200081580E947A00089581550E947A000895AE
:1001300084E690E00E94670088E30E947A0086E0EF
:100140000E947A008FE00E947A0081E00E947A008B
:100150008AE090E00E94670008959BB190649BB98B
:1001600088B98BB180688BB900008BB18F778BB960
:1001700081E090E00E9467000895EF92FF920F9354
:100180001F93CF93DF93182FEB010E948A000EC0BC
:1001900001E0010F812F0E948E007E018FEFE81A8F
:1001A000F80A88810E94AD00102FE7018881811133
:1001B000EFCFDF91CF911F910F91FF90EF900895B6
:1001C000CF93C82F8A3019F48DE00E94E00080910F
:1001D000C00085FFFCCFC093C60080E090E0CF91C7
:1001E000089560930E0170930F0180931001909316
:1001F0001101609312017093130180931401909385
:10020000150108958BE0809381008DE790E0909335
:1002100089008093880082E080936F0010928500AF
:100220001092840080910E0190910F01A091100115
:10023000B09111018093120190931301A0931401C6
:10024000B09315018FB780688FBF08951092810019
:10025000089581E08093160108951F920F920FB6C2
:100260000F9211240BB60F922F933F934F935F93EE
:100270006F937F938F939F93AF93BF93EF93FF936E
:100280008091120190911301A0911401B091150178
:100290000197A109B1098093120190931301A093D2
:1002A0001401B0931501892B8A2B8B2B91F40E949A
:1002B000290180910E0190910F01A0911001B09140
:1002C00011018093120190931301A0931401B09334
:1002D0001501FF91EF91BF91AF919F918F917F9108
:1002E0006F915F914F913F912F910F900BBE0F90A7
:1002F0000FBE0F901F9018958091170190911801D3
:100300008230910509F43FC028F4009759F0019715
:1003100091F0ADC08330910509F45BC0049709F4F6
:100320007EC0A5C081E090E09093180180931701F2
:1003300010921A01A0C0009909C0019907C084E079
:1003400090E0909318018093170195C0009909C01F
:1003500082E090E0909318018093170110921901A8
:100360008AC0019909C083E090E0909318018093BE
:100370001701109219017FC081E090E0909318015D
:100380008093170178C0009909C0019907C084E0E3
:1003900090E090931801809317016DC0009907C0F9
:1003A00082E090E0909318018093170164C0019956
:1003B00009C083E090E09093180180931701109298
:1003C000190159C081E090E09093180180931701C2
:1003D00052C0009909C0019907C084E090E0909351
:1003E00018018093170147C0009909C082E090E08E
:1003F0009093180180931701109219013CC0019944
:1004000007C083E090E0909318018093170133C0F8
:1004100081E090E090931801809317012CC000991F
:1004200009C0019907C084E090E09093180180937F
:10043000170121C0009909C082E090E09093180153
:10044000809317011092190116C0019909C083E029
:1004500090E09093180180931701109219010BC03E
:1004600081E090E0909318018093170104C01092EE
:100470001801109217018091170190911801833093
:100480009105D1F08430910561F1029761F5809179
:100490001A01893028F490911901911101C08F5FE0
:1004A00080931A01809119018A3010F48F5F01C086
:1004B00080E080931901089580911A01882329F022
:1004C00090911901911101C0815080931A0180917E
:1004D00019018A3010F48F5F01C080E08093190108
:1004E000089510921A01089511B88FEF82B987B953
:1004F00018B88AB91BB81092190110921A0164E653
:1005000070E080E090E00E94F1000E9402010E94F1
:1005100098000E947C010E948A0080911A01805DEF
:100520000E94AD00809116018823E1F3109216011C
:06053000F0CFF894FFCFAC
:100536000000000200000000E000000000000100D2
:020546000000B3
:00000001FF
