:100000000C9446000C9465000C9465000C946500FB
:100010000C9465000C9465000C9465000C946500CC
:100020000C9465000C9465000C9465000C946500BC
:100030000C9465000C942D010C9465000C946500E3
:100040000C9465000C9465000C9465000C9465009C
:100050000C9465000C9465000C9465000C9465008C
:100060000C9465000C9465000C9465000C9465007C
:100070000C9465000C9465000C9465000C9465006C
:100080000C9465000C9465000C94650011241FBE4F
:10009000CFEFD0E4DEBFCDBF11E0A0E0B1E0E8EBF0
:1000A000F4E000E00BBF02C007900D92AC31B10745
:1000B000D9F721E0ACE1B1E001C01D92A632B20750
:1000C000E1F70E942A020C945A020C94000040E0CE
:1000D00050E00CC000002F5F3F4F02C020E030E036
:1000E000273063E03607B4F34F5F5F4F4817590777
:1000F000ACF308959BB19F7B9BB988B98BB18068A5
:100100008BB900008BB18F778BB982E090E00E94B1
:100110006700089581E00E947A000895813120F4FB
:1001200081580E947A00089581550E947A000895AE
:1001300084E690E00E94670088E30E947A0086E0EF
:100140000E947A008FE00E947A0081E00E947A008B
:100150008AE090E00E94670008959BB190649BB98B
:1001600088B98BB180688BB900008BB18F778BB960
:1001700081E090E00E9467000895EF92FF920F9354
:100180001F93CF93DF93182FEB010E948A000EC0BC
:1001900001E0010F812F0E948E007E018FEFE81A8F
:1001A000F80A88810E94AD00102FE7018881811133
:1001B000EFCFDF91CF911F910F91FF90EF900895B6
:1001C000CF93C82F8A3019F48DE00E94E00080910F
:1001D000C00085FFFCCFC093C60080E090E0CF91C7
:1001E000089560930E0170930F0180931001909316
:1001F000110160931C0170931D0180931E01909367
:100200001F0108958BE0809381008DE790E090932B
:1002100089008093880082E080936F0010928500AF
:100220001092840080910E0190910F01A091100115
:10023000B091110180931C0190931D01A0931E01A8
:10024000B0931F018FB780688FBF0895109281000F
:10025000089581E08093200108951F920F920FB6B8
:100260000F9211240BB60F922F933F934F935F93EE
:100270006F937F938F939F93AF93BF93EF93FF936E
:1002800080911C0190911D01A0911E01B0911F0150
:100290000197A109B10980931C0190931D01A093BE
:1002A0001E01B0931F01892B8A2B8B2B91F40E9486
:1002B000290180910E0190910F01A0911001B09140
:1002C000110180931C0190931D01A0931E01B09316
:1002D0001F01FF91EF91BF91AF919F918F917F91FE
:1002E0006F915F914F913F912F910F900BBE0F90A7
:1002F0000FBE0F901F9018958091210190912201BF
:1003000082309105D1F128F4009769F00197A1F0AE
:100310008DC08430910509F471C008F44EC0059772
:1003200009F475C083C081E090E09093220180932E
:100330002101809325017AC0009911C08091250187
:10034000882369F084E090E090932201809321015A
:1003500080912301811181508093230106C082E0A6
:1003600090E0909322018093210183E08093240107
:1003700080B181708093250159C0009912C080918D
:100380002501882371F084E090E09093220180930E
:10039000210180912301893008F48F5F809323012C
:1003A00007C08091240190E0909322018093210165
:1003B00080B181708093250139C0009911C080916E
:1003C0002501882369F084E090E0909322018093D6
:1003D000210180912301811181508093230106C066
:1003E00082E090E0909322018093210181E080934C
:1003F000240180B181708093250118C0009B02C048
:1004000085E090E090932201809321010FC0009934
:1004100007C010922201109221011092250106C0FE
:1004200085E090E090932201809321018091210149
:10043000909122018230910539F018F0039739F03C
:10044000089581E085B9089582E085B9089584E032
:1004500085B9089511B88FEF82B984B915B887B9F5
:1004600018B88AB91BB885E0809323016CE271E06B
:1004700080E090E00E94F1000E9402010E9498003A
:100480000E947C0180912301893030F062E171E0AB
:1004900081E00E94BD0007C00E948A008091230174
:1004A000805D0E94AD00809120018823E1F31092CD
:0804B0002001E6CFF894FFCF14
:1004B8000000000200000000E00000000000010051
:0C04C8000000566963746F727921000017
:00000001FF
